{
  "contractName": "ProjectFIR",
  "abi": [
    {
      "inputs": [
        {
          "internalType": "address",
          "name": "",
          "type": "address"
        }
      ],
      "name": "FIRBook",
      "outputs": [
        {
          "internalType": "string",
          "name": "name",
          "type": "string"
        },
        {
          "internalType": "string",
          "name": "email",
          "type": "string"
        },
        {
          "internalType": "string",
          "name": "phoneNumber",
          "type": "string"
        },
        {
          "internalType": "string",
          "name": "streetAddress",
          "type": "string"
        },
        {
          "internalType": "string",
          "name": "city",
          "type": "string"
        },
        {
          "internalType": "string",
          "name": "zipCode",
          "type": "string"
        },
        {
          "internalType": "string",
          "name": "witness",
          "type": "string"
        },
        {
          "internalType": "string",
          "name": "incidentDate",
          "type": "string"
        },
        {
          "internalType": "string",
          "name": "details",
          "type": "string"
        }
      ],
      "stateMutability": "view",
      "type": "function",
      "constant": true
    },
    {
      "inputs": [
        {
          "internalType": "string",
          "name": "_name",
          "type": "string"
        },
        {
          "internalType": "string",
          "name": "_email",
          "type": "string"
        },
        {
          "internalType": "string",
          "name": "_phoneNumber",
          "type": "string"
        },
        {
          "internalType": "string",
          "name": "_streetAddress",
          "type": "string"
        },
        {
          "internalType": "string",
          "name": "_city",
          "type": "string"
        },
        {
          "internalType": "string",
          "name": "_zipCode",
          "type": "string"
        },
        {
          "internalType": "string",
          "name": "_witness",
          "type": "string"
        },
        {
          "internalType": "string",
          "name": "_incidentDate",
          "type": "string"
        },
        {
          "internalType": "string",
          "name": "_details",
          "type": "string"
        }
      ],
      "name": "launchFIR",
      "outputs": [],
      "stateMutability": "nonpayable",
      "type": "function"
    }
  ],
  "bytecode": "0x608060405234801561001057600080fd5b50610f12806100206000396000f3fe608060405234801561001057600080fd5b50600436106100365760003560e01c8063177c09af1461003b57806364a4f72a14610073575b600080fd5b61005560048036038101906100509190610770565b61008f565b60405161006a9998979695949392919061082d565b60405180910390f35b61008d60048036038101906100889190610a2e565b6105a5565b005b60006020528060005260406000206000915090508060000180546100b290610c23565b80601f01602080910402602001604051908101604052809291908181526020018280546100de90610c23565b801561012b5780601f106101005761010080835404028352916020019161012b565b820191906000526020600020905b81548152906001019060200180831161010e57829003601f168201915b50505050509080600101805461014090610c23565b80601f016020809104026020016040519081016040528092919081815260200182805461016c90610c23565b80156101b95780601f1061018e576101008083540402835291602001916101b9565b820191906000526020600020905b81548152906001019060200180831161019c57829003601f168201915b5050505050908060020180546101ce90610c23565b80601f01602080910402602001604051908101604052809291908181526020018280546101fa90610c23565b80156102475780601f1061021c57610100808354040283529160200191610247565b820191906000526020600020905b81548152906001019060200180831161022a57829003601f168201915b50505050509080600301805461025c90610c23565b80601f016020809104026020016040519081016040528092919081815260200182805461028890610c23565b80156102d55780601f106102aa576101008083540402835291602001916102d5565b820191906000526020600020905b8154815290600101906020018083116102b857829003601f168201915b5050505050908060040180546102ea90610c23565b80601f016020809104026020016040519081016040528092919081815260200182805461031690610c23565b80156103635780601f1061033857610100808354040283529160200191610363565b820191906000526020600020905b81548152906001019060200180831161034657829003601f168201915b50505050509080600501805461037890610c23565b80601f01602080910402602001604051908101604052809291908181526020018280546103a490610c23565b80156103f15780601f106103c6576101008083540402835291602001916103f1565b820191906000526020600020905b8154815290600101906020018083116103d457829003601f168201915b50505050509080600601805461040690610c23565b80601f016020809104026020016040519081016040528092919081815260200182805461043290610c23565b801561047f5780601f106104545761010080835404028352916020019161047f565b820191906000526020600020905b81548152906001019060200180831161046257829003601f168201915b50505050509080600701805461049490610c23565b80601f01602080910402602001604051908101604052809291908181526020018280546104c090610c23565b801561050d5780601f106104e25761010080835404028352916020019161050d565b820191906000526020600020905b8154815290600101906020018083116104f057829003601f168201915b50505050509080600801805461052290610c23565b80601f016020809104026020016040519081016040528092919081815260200182805461054e90610c23565b801561059b5780601f106105705761010080835404028352916020019161059b565b820191906000526020600020905b81548152906001019060200180831161057e57829003601f168201915b5050505050905089565b60006040518061012001604052808b81526020018a8152602001898152602001888152602001878152602001868152602001858152602001848152602001838152509050806000803373ffffffffffffffffffffffffffffffffffffffff1673ffffffffffffffffffffffffffffffffffffffff168152602001908152602001600020600082015181600001908161063d9190610e0a565b5060208201518160010190816106539190610e0a565b5060408201518160020190816106699190610e0a565b50606082015181600301908161067f9190610e0a565b5060808201518160040190816106959190610e0a565b5060a08201518160050190816106ab9190610e0a565b5060c08201518160060190816106c19190610e0a565b5060e08201518160070190816106d79190610e0a565b506101008201518160080190816106ee9190610e0a565b5090505050505050505050505050565b6000604051905090565b600080fd5b600080fd5b600073ffffffffffffffffffffffffffffffffffffffff82169050919050565b600061073d82610712565b9050919050565b61074d81610732565b811461075857600080fd5b50565b60008135905061076a81610744565b92915050565b60006020828403121561078657610785610708565b5b60006107948482850161075b565b91505092915050565b600081519050919050565b600082825260208201905092915050565b60005b838110156107d75780820151818401526020810190506107bc565b60008484015250505050565b6000601f19601f8301169050919050565b60006107ff8261079d565b61080981856107a8565b93506108198185602086016107b9565b610822816107e3565b840191505092915050565b6000610120820190508181036000830152610848818c6107f4565b9050818103602083015261085c818b6107f4565b90508181036040830152610870818a6107f4565b9050818103606083015261088481896107f4565b9050818103608083015261089881886107f4565b905081810360a08301526108ac81876107f4565b905081810360c08301526108c081866107f4565b905081810360e08301526108d481856107f4565b90508181036101008301526108e981846107f4565b90509a9950505050505050505050565b600080fd5b600080fd5b7f4e487b7100000000000000000000000000000000000000000000000000000000600052604160045260246000fd5b61093b826107e3565b810181811067ffffffffffffffff8211171561095a57610959610903565b5b80604052505050565b600061096d6106fe565b90506109798282610932565b919050565b600067ffffffffffffffff82111561099957610998610903565b5b6109a2826107e3565b9050602081019050919050565b82818337600083830152505050565b60006109d16109cc8461097e565b610963565b9050828152602081018484840111156109ed576109ec6108fe565b5b6109f88482856109af565b509392505050565b600082601f830112610a1557610a146108f9565b5b8135610a258482602086016109be565b91505092915050565b60008060008060008060008060006101208a8c031215610a5157610a50610708565b5b60008a013567ffffffffffffffff811115610a6f57610a6e61070d565b5b610a7b8c828d01610a00565b99505060208a013567ffffffffffffffff811115610a9c57610a9b61070d565b5b610aa88c828d01610a00565b98505060408a013567ffffffffffffffff811115610ac957610ac861070d565b5b610ad58c828d01610a00565b97505060608a013567ffffffffffffffff811115610af657610af561070d565b5b610b028c828d01610a00565b96505060808a013567ffffffffffffffff811115610b2357610b2261070d565b5b610b2f8c828d01610a00565b95505060a08a013567ffffffffffffffff811115610b5057610b4f61070d565b5b610b5c8c828d01610a00565b94505060c08a013567ffffffffffffffff811115610b7d57610b7c61070d565b5b610b898c828d01610a00565b93505060e08a013567ffffffffffffffff811115610baa57610ba961070d565b5b610bb68c828d01610a00565b9250506101008a013567ffffffffffffffff811115610bd857610bd761070d565b5b610be48c828d01610a00565b9150509295985092959850929598565b7f4e487b7100000000000000000000000000000000000000000000000000000000600052602260045260246000fd5b60006002820490506001821680610c3b57607f821691505b602082108103610c4e57610c4d610bf4565b5b50919050565b60008190508160005260206000209050919050565b60006020601f8301049050919050565b600082821b905092915050565b600060088302610cb67fffffffffffffffffffffffffffffffffffffffffffffffffffffffffffffffff82610c79565b610cc08683610c79565b95508019841693508086168417925050509392505050565b6000819050919050565b6000819050919050565b6000610d07610d02610cfd84610cd8565b610ce2565b610cd8565b9050919050565b6000819050919050565b610d2183610cec565b610d35610d2d82610d0e565b848454610c86565b825550505050565b600090565b610d4a610d3d565b610d55818484610d18565b505050565b5b81811015610d7957610d6e600082610d42565b600181019050610d5b565b5050565b601f821115610dbe57610d8f81610c54565b610d9884610c69565b81016020851015610da7578190505b610dbb610db385610c69565b830182610d5a565b50505b505050565b600082821c905092915050565b6000610de160001984600802610dc3565b1980831691505092915050565b6000610dfa8383610dd0565b9150826002028217905092915050565b610e138261079d565b67ffffffffffffffff811115610e2c57610e2b610903565b5b610e368254610c23565b610e41828285610d7d565b600060209050601f831160018114610e745760008415610e62578287015190505b610e6c8582610dee565b865550610ed4565b601f198416610e8286610c54565b60005b82811015610eaa57848901518255600182019150602085019450602081019050610e85565b86831015610ec75784890151610ec3601f891682610dd0565b8355505b6001600288020188555050505b50505050505056fea2646970667358221220e7c1d8980e4dae9bf9e3845c7b9c40860e7449e90f0c3d86b48aac4f2dbd253964736f6c63430008110033",
  "immutableReferences": {},
  "source": "// SPDX-License-Identifier: MIT\npragma solidity ^0.8.14;\n\n\ncontract ProjectFIR {\n  \n  struct FIR {\n    string name;\n  string email;\n  string phoneNumber;\n  string streetAddress;\n  string city;\n  string zipCode;\n  string witness;\n  string incidentDate;\n  string details;\n  }\n\n  mapping ( address => FIR ) public FIRBook;\n\n  function launchFIR (string memory _name, string memory _email, string memory _phoneNumber, string memory _streetAddress, \n  string memory _city, string memory _zipCode, string memory _witness, string memory _incidentDate,\n  string memory _details) public {\n      FIR memory report = FIR(_name, _email, _phoneNumber, _streetAddress, _city, _zipCode, _witness, _incidentDate, _details);\n      FIRBook[msg.sender] = report;\n  }\n\n  \n}",
  "sourcePath": "/home/lone/Programming-Stuff/BlockchainProjects/Project_FIR/test1/contracts/ProjectFIR.sol",
  "compiler": {
    "name": "solc",
    "version": "0.8.17+commit.8df45f5f.Emscripten.clang"
  },
  "schemaVersion": "3.4.7",
  "updatedAt": "2023-01-31T15:43:02.776Z",
  "networkType": "ethereum",
  "devdoc": {
    "kind": "dev",
    "methods": {},
    "version": 1
  },
  "userdoc": {
    "kind": "user",
    "methods": {},
    "version": 1
  }
}